{"abi":[{"type":"constructor","inputs":[],"stateMutability":"nonpayable"},{"type":"function","name":"LINK_TYPEHASH","inputs":[],"outputs":[{"name":"","type":"bytes32","internalType":"bytes32"}],"stateMutability":"view"},{"type":"function","name":"createVerifiedLink","inputs":[{"name":"agentWallet","type":"address","internalType":"address"},{"name":"agentTokenId","type":"uint256","internalType":"uint256"},{"name":"ethosProfileId","type":"uint256","internalType":"uint256"},{"name":"role","type":"uint8","internalType":"enum AgentHumanLinkRegistry.Role"},{"name":"expiration","type":"uint256","internalType":"uint256"},{"name":"deadline","type":"uint256","internalType":"uint256"},{"name":"humanSignature","type":"bytes","internalType":"bytes"},{"name":"agentSignature","type":"bytes","internalType":"bytes"}],"outputs":[{"name":"linkId","type":"uint256","internalType":"uint256"}],"stateMutability":"nonpayable"},{"type":"function","name":"eip712Domain","inputs":[],"outputs":[{"name":"fields","type":"bytes1","internalType":"bytes1"},{"name":"name","type":"string","internalType":"string"},{"name":"version","type":"string","internalType":"string"},{"name":"chainId","type":"uint256","internalType":"uint256"},{"name":"verifyingContract","type":"address","internalType":"address"},{"name":"salt","type":"bytes32","internalType":"bytes32"},{"name":"extensions","type":"uint256[]","internalType":"uint256[]"}],"stateMutability":"view"},{"type":"function","name":"getActiveAgentLinks","inputs":[{"name":"agentWallet","type":"address","internalType":"address"},{"name":"agentTokenId","type":"uint256","internalType":"uint256"}],"outputs":[{"name":"","type":"tuple[]","internalType":"struct AgentHumanLinkRegistry.Link[]","components":[{"name":"linkId","type":"uint256","internalType":"uint256"},{"name":"agentWallet","type":"address","internalType":"address"},{"name":"agentTokenId","type":"uint256","internalType":"uint256"},{"name":"humanWallet","type":"address","internalType":"address"},{"name":"ethosProfileId","type":"uint256","internalType":"uint256"},{"name":"role","type":"uint8","internalType":"enum AgentHumanLinkRegistry.Role"},{"name":"level","type":"uint8","internalType":"enum AgentHumanLinkRegistry.VerificationLevel"},{"name":"status","type":"uint8","internalType":"enum AgentHumanLinkRegistry.Status"},{"name":"createdAt","type":"uint256","internalType":"uint256"},{"name":"expiration","type":"uint256","internalType":"uint256"},{"name":"humanSignature","type":"bytes","internalType":"bytes"},{"name":"agentSignature","type":"bytes","internalType":"bytes"}]}],"stateMutability":"view"},{"type":"function","name":"getAgentLinks","inputs":[{"name":"agentWallet","type":"address","internalType":"address"},{"name":"agentTokenId","type":"uint256","internalType":"uint256"}],"outputs":[{"name":"","type":"uint256[]","internalType":"uint256[]"}],"stateMutability":"view"},{"type":"function","name":"getDomainSeparator","inputs":[],"outputs":[{"name":"","type":"bytes32","internalType":"bytes32"}],"stateMutability":"view"},{"type":"function","name":"getHumanLinks","inputs":[{"name":"humanWallet","type":"address","internalType":"address"}],"outputs":[{"name":"","type":"uint256[]","internalType":"uint256[]"}],"stateMutability":"view"},{"type":"function","name":"getLink","inputs":[{"name":"linkId","type":"uint256","internalType":"uint256"}],"outputs":[{"name":"","type":"tuple","internalType":"struct AgentHumanLinkRegistry.Link","components":[{"name":"linkId","type":"uint256","internalType":"uint256"},{"name":"agentWallet","type":"address","internalType":"address"},{"name":"agentTokenId","type":"uint256","internalType":"uint256"},{"name":"humanWallet","type":"address","internalType":"address"},{"name":"ethosProfileId","type":"uint256","internalType":"uint256"},{"name":"role","type":"uint8","internalType":"enum AgentHumanLinkRegistry.Role"},{"name":"level","type":"uint8","internalType":"enum AgentHumanLinkRegistry.VerificationLevel"},{"name":"status","type":"uint8","internalType":"enum AgentHumanLinkRegistry.Status"},{"name":"createdAt","type":"uint256","internalType":"uint256"},{"name":"expiration","type":"uint256","internalType":"uint256"},{"name":"humanSignature","type":"bytes","internalType":"bytes"},{"name":"agentSignature","type":"bytes","internalType":"bytes"}]}],"stateMutability":"view"},{"type":"function","name":"getProfileLinks","inputs":[{"name":"ethosProfileId","type":"uint256","internalType":"uint256"}],"outputs":[{"name":"","type":"uint256[]","internalType":"uint256[]"}],"stateMutability":"view"},{"type":"function","name":"isLinkActive","inputs":[{"name":"linkId","type":"uint256","internalType":"uint256"}],"outputs":[{"name":"","type":"bool","internalType":"bool"}],"stateMutability":"view"},{"type":"function","name":"links","inputs":[{"name":"","type":"uint256","internalType":"uint256"}],"outputs":[{"name":"linkId","type":"uint256","internalType":"uint256"},{"name":"agentWallet","type":"address","internalType":"address"},{"name":"agentTokenId","type":"uint256","internalType":"uint256"},{"name":"humanWallet","type":"address","internalType":"address"},{"name":"ethosProfileId","type":"uint256","internalType":"uint256"},{"name":"role","type":"uint8","internalType":"enum AgentHumanLinkRegistry.Role"},{"name":"level","type":"uint8","internalType":"enum AgentHumanLinkRegistry.VerificationLevel"},{"name":"status","type":"uint8","internalType":"enum AgentHumanLinkRegistry.Status"},{"name":"createdAt","type":"uint256","internalType":"uint256"},{"name":"expiration","type":"uint256","internalType":"uint256"},{"name":"humanSignature","type":"bytes","internalType":"bytes"},{"name":"agentSignature","type":"bytes","internalType":"bytes"}],"stateMutability":"view"},{"type":"function","name":"nonces","inputs":[{"name":"","type":"address","internalType":"address"}],"outputs":[{"name":"","type":"uint256","internalType":"uint256"}],"stateMutability":"view"},{"type":"function","name":"revokeLink","inputs":[{"name":"linkId","type":"uint256","internalType":"uint256"}],"outputs":[],"stateMutability":"nonpayable"},{"type":"function","name":"totalLinks","inputs":[],"outputs":[{"name":"","type":"uint256","internalType":"uint256"}],"stateMutability":"view"},{"type":"function","name":"upgradeLink","inputs":[{"name":"linkId","type":"uint256","internalType":"uint256"},{"name":"signature","type":"bytes","internalType":"bytes"},{"name":"deadline","type":"uint256","internalType":"uint256"}],"outputs":[],"stateMutability":"nonpayable"},{"type":"event","name":"AgentLinked","inputs":[{"name":"linkId","type":"uint256","indexed":true,"internalType":"uint256"},{"name":"agentTokenId","type":"uint256","indexed":true,"internalType":"uint256"},{"name":"ethosProfileId","type":"uint256","indexed":true,"internalType":"uint256"},{"name":"agentWallet","type":"address","indexed":false,"internalType":"address"},{"name":"humanWallet","type":"address","indexed":false,"internalType":"address"},{"name":"role","type":"uint8","indexed":false,"internalType":"enum AgentHumanLinkRegistry.Role"},{"name":"level","type":"uint8","indexed":false,"internalType":"enum AgentHumanLinkRegistry.VerificationLevel"},{"name":"expiration","type":"uint256","indexed":false,"internalType":"uint256"}],"anonymous":false},{"type":"event","name":"AgentUnlinked","inputs":[{"name":"linkId","type":"uint256","indexed":true,"internalType":"uint256"},{"name":"revokedBy","type":"address","indexed":false,"internalType":"address"}],"anonymous":false},{"type":"event","name":"EIP712DomainChanged","inputs":[],"anonymous":false},{"type":"event","name":"LinkUpgraded","inputs":[{"name":"linkId","type":"uint256","indexed":true,"internalType":"uint256"},{"name":"oldLevel","type":"uint8","indexed":false,"internalType":"enum AgentHumanLinkRegistry.VerificationLevel"},{"name":"newLevel","type":"uint8","indexed":false,"internalType":"enum AgentHumanLinkRegistry.VerificationLevel"}],"anonymous":false},{"type":"error","name":"ECDSAInvalidSignature","inputs":[]},{"type":"error","name":"ECDSAInvalidSignatureLength","inputs":[{"name":"length","type":"uint256","internalType":"uint256"}]},{"type":"error","name":"ECDSAInvalidSignatureS","inputs":[{"name":"s","type":"bytes32","internalType":"bytes32"}]},{"type":"error","name":"InvalidShortString","inputs":[]},{"type":"error","name":"StringTooLong","inputs":[{"name":"str","type":"string","internalType":"string"}]}],"bytecode":{"object":"0x6101606040523461014257604051610018604082610146565b6016815260208101907f4167656e7448756d616e4c696e6b526567697374727900000000000000000000825260405191610053604084610146565b600183526020830191603160f81b835261006c8161017d565b6101205261007984610313565b61014052519020918260e05251902080610100524660a0526040519060208201927f8b73c3c69bb8fe3d512ecc4cf759cc79239f7b179b0ffacaa9a75d522b39400f8452604083015260608201524660808201523060a082015260a081526100e260c082610146565b5190206080523060c0526001600255604051611e1a908161044c823960805181611b31015260a05181611be8015260c05181611afb015260e05181611b8001526101005181611ba6015261012051816108310152610140518161085d0152f35b5f80fd5b601f909101601f19168101906001600160401b0382119082101761016957604052565b634e487b7160e01b5f52604160045260245ffd5b908151602081105f146101f7575090601f8151116101b75760208151910151602082106101a8571790565b5f198260200360031b1b161790565b604460209160405192839163305a27a960e01b83528160048401528051918291826024860152018484015e5f828201840152601f01601f19168101030190fd5b6001600160401b038111610169575f54600181811c91168015610309575b60208210146102f557601f81116102c3575b50602092601f821160011461026457928192935f92610259575b50508160011b915f199060031b1c1916175f5560ff90565b015190505f80610241565b601f198216935f8052805f20915f5b8681106102ab5750836001959610610293575b505050811b015f5560ff90565b01515f1960f88460031b161c191690555f8080610286565b91926020600181928685015181550194019201610273565b5f8052601f60205f20910160051c810190601f830160051c015b8181106102ea5750610227565b5f81556001016102dd565b634e487b7160e01b5f52602260045260245ffd5b90607f1690610215565b908151602081105f1461033e575090601f8151116101b75760208151910151602082106101a8571790565b6001600160401b03811161016957600154600181811c91168015610441575b60208210146102f557601f811161040e575b50602092601f82116001146103ad57928192935f926103a2575b50508160011b915f199060031b1c19161760015560ff90565b015190505f80610389565b601f1982169360015f52805f20915f5b8681106103f657508360019596106103de575b505050811b0160015560ff90565b01515f1960f88460031b161c191690555f80806103d0565b919260206001819286850151815501940192016103bd565b60015f52601f60205f20910160051c810190601f830160051c015b818110610436575061036f565b5f8155600101610429565b90607f169061035d56fe6080806040526004361015610012575f80fd5b5f3560e01c908163092b4de11461144257508063142ca4c914611302578063393b6df3146112bb57806348f02add1461124f57806350ff82a9146110b75780636ca0b9261461091e5780637ecebe00146108e657806384b0196e14610819578063879d5bfe146107b5578063881d8a40146106a55780638ce8d420146101d3578063ddbc4a4b14610199578063e0a3e15714610171578063ed24911d1461014f5763ffe0649f146100c1575f80fd5b3461014b57602036600319011261014b576001600160a01b036100e261158a565b165f52600560205260405f206040519081602082549182815201915f5260205f20905f5b818110610135576101318561011d818703826116d7565b6040519182916020835260208301906115a0565b0390f35b8254845260209093019260019283019201610106565b5f80fd5b3461014b575f36600319011261014b576020610169611af8565b604051908152f35b3461014b57602036600319011261014b57602061018f600435611a0f565b6040519015158152f35b3461014b575f36600319011261014b5760206040517f425117eeada43daa164b20194b22484c2a867eaa7e380b2b9bd7cd235a388e8a8152f35b3461014b57606036600319011261014b5760043560243567ffffffffffffffff811161014b576102079036906004016115d3565b60443591835f52600360205260405f2091610224835415156116f9565b600583019283549460ff8660101c1660028110156105a45761066e5761024987611a0f565b15610636578042116105fd5760ff8660081c1660038110156105a4576002146105b85760028201549560ff600484015491169660058810156105a4576102f8976102d66102de936102c86102ef966007890154335f52600860205260405f20908154916102b5836118b5565b905560405196879560208701998a6118ef565b03601f1981018352826116d7565b519020611ad2565b6102e9368587611941565b90611c0e565b90969196611c48565b60ff845460081c169460038610156105a457856104905760018201546001600160a01b0390811691160361044b576009019167ffffffffffffffff82116104375761034d826103478554611601565b85611987565b5f90601f83116001146103c05782604095935f516020611dc55f395f51905f5297959361038f935f926103b5575b50508160011b915f199060031b1c19161790565b90555b61020061ff00198254161790556103ab82518092611489565b60026020820152a2005b01359050898061037b565b601f19831691845f5260205f20925f5b81811061041f5750926001928592604098965f516020611dc55f395f51905f529a989610610406575b505050811b019055610392565b01355f19600384901b60f8161c191690558880806103f9565b919360206001819287870135815501950192016103d0565b634e487b7160e01b5f52604160045260245ffd5b60405162461bcd60e51b815260206004820152601b60248201527f5369676e6572206d757374206265206167656e742077616c6c657400000000006044820152606490fd5b929091600883019167ffffffffffffffff8211610437576104b5826103478554611601565b5f90601f831160011461052b57926104fa8360039460409997945f516020611dc55f395f51905f529b99975f926105205750508160011b915f199060031b1c19161790565b90555b0180546001600160a01b0319166001600160a01b03909216919091179055610392565b013590508c8061037b565b601f19831691845f5260205f20925f5b81811061058c57509360409896935f516020611dc55f395f51905f529a9896936001938360039810610575575b505050811b0190556104fd565b01355f1983881b60f8161c191690558b8080610568565b9193602060018192878701358155019501920161053b565b634e487b7160e01b5f52602160045260245ffd5b60405162461bcd60e51b815260206004820152601960248201527f416c7265616479206d757475616c6c79207665726966696564000000000000006044820152606490fd5b60405162461bcd60e51b815260206004820152601160248201527014da59db985d1d5c9948195e1c1a5c9959607a1b6044820152606490fd5b60405162461bcd60e51b815260206004820152601060248201526f131a5b9ac81a185cc8195e1c1a5c995960821b6044820152606490fd5b60405162461bcd60e51b815260206004820152600f60248201526e131a5b9ac81a5cc81c995d9bdad959608a1b6044820152606490fd5b3461014b57602036600319011261014b576004355f52600360205260405f20805461013160096107a660018060a01b0360018601541694600281015460018060a01b036003830154166107866004840154600585015490600686015493600787015495610737604051986107278a6107208160088501611639565b038b6116d7565b610720604051809d819301611639565b6040519c8d9c8d5260208d015260408c015260608b015260808a015261076360a08a0160ff831661147c565b61077660c08a0160ff8360081c16611489565b60ff60e08a019160101c16611496565b6101008701526101208601526101806101408601526101808501906114a3565b908382036101608501526114a3565b3461014b57602036600319011261014b576004355f52600660205260405f206040519081602082549182815201915f5260205f20905f5b818110610803576101318561011d818703826116d7565b82548452602090930192600192830192016107ec565b3461014b575f36600319011261014b576108b86108557f0000000000000000000000000000000000000000000000000000000000000000611ca8565b6101316108817f0000000000000000000000000000000000000000000000000000000000000000611d00565b6108c6604051916108936020846116d7565b5f83525f368137604051958695600f60f81b875260e0602088015260e08701906114a3565b9085820360408701526114a3565b904660608501523060808501525f60a085015283820360c08501526115a0565b3461014b57602036600319011261014b576001600160a01b0361090761158a565b165f526008602052602060405f2054604051908152f35b3461014b5761010036600319011261014b5761093861158a565b6005606435101561014b5760a4359060c43567ffffffffffffffff811161014b576109679036906004016115d3565b92909160e43567ffffffffffffffff811161014b5761098a9036906004016115d3565b9280421161107d57608435158015611072575b1561102e576109af3360243585611a91565b5f52600760205260405f205480610fbd575b50610a0490335f5260086020526102c86102d660405f20928354936109e5856118b5565b905560405192839160208301956084356064356044356024358a6118ef565b8315159186151587610fb6575b15610f4f57610a48610a33610a3c610a33610a2d368c8c611941565b86611c0e565b90929192611c48565b936102e9368986611941565b6002935b88610efc575b610e8b575b50610af59060025495610a69876118b5565b6002558815610e8157610ae884985b60405199610a858b6116ba565b898b526001600160a01b0389811660208d015260243560408d01521660608b015260443560808b0152610abd60643560a08c01611793565b610aca8760c08c0161179f565b5f60e08b0152426101008b01526084356101208b01528a3691611941565b6101408901523691611941565b6101608601525f8481526003602081815260409283902088518155908801516001820180546001600160a01b03199081166001600160a01b0393841617909155938901516002830155606089015192820180549094169216919091179091556080860151600482015560a0860151909590600580880191908110156105a45760ff8019835416911617815560c082015160038110156105a45761ff0082549160081b169061ff00191617815560e082015160028110156105a45762ff000082549160101b169062ff00001916179055610100810151600687015561012081015160078701556008860161014082015180519067ffffffffffffffff821161043757610c04826103478554611601565b602090601f8311600114610e19579180610c38926101609695945f92610d9f5750508160011b915f199060031b1c19161790565b90555b01519586519567ffffffffffffffff871161043757602097610c6d88610c646009850154611601565b60098501611987565b8890601f8911600114610daa5788610d52979899600993610ca2935f92610d9f5750508160011b915f199060031b1c19161790565b9101555b610cb260243586611a5d565b5f5260048752610cc58660405f206119d6565b8015610d9657610d0b825b60018060a01b0381165f5260058952610cec8860405f206119d6565b6044355f5260068952610d028860405f206119d6565b60243587611a91565b5f52600787528560405f205515155f14610d8f575b604080516001600160a01b039586168152919094168682015292610d4890840160643561147c565b6060830190611489565b608435608082015260443590827fd6db09830ce9335290f36fdb5282ddd70cbeafe4bfd2262efde378f67f1f4e3e60a060243593a4604051908152f35b5033610d20565b610d0b33610cd0565b015190508c8061037b565b90600983015f52805f20915f5b601f198b168110610e02575098600992600192610d52999a9b83601f19811610610dea575b505050811b01910155610ca6565b01515f1960f88460031b161c191690558b8080610ddc565b91928b600181928685015181550194019201610db7565b90601f19831691845f52815f20925f5b818110610e6957509160019391856101609897969410610e51575b505050811b019055610c3b565b01515f1960f88460031b161c191690558b8080610e44565b92936020600181928786015181550195019301610e29565b610ae83398610a78565b6001600160a01b03858116911603610ea35787610a57565b60405162461bcd60e51b815260206004820152602b60248201527f4167656e74207369676e6174757265206d75737420636f6d652066726f6d206160448201526a19d95b9d081dd85b1b195d60aa1b6064820152608490fd5b6001600160a01b038416610a525760405162461bcd60e51b815260206004820152601760248201527f496e76616c69642068756d616e207369676e61747572650000000000000000006044820152606490fd5b908615610f7157610a33610f68916102e9368a8a611941565b905f5f93610a4c565b908215610f9357610f8b610a335f936102e9368986611941565b600193610a4c565b339150816001600160a01b0385168103610fb05760025b93610a4c565b5f610faa565b5082610a11565b610fc690611a0f565b610fd057866109c1565b60405162461bcd60e51b815260206004820152603060248201527f416374697665206c696e6b20616c72656164792065786973747320626574776560448201526f656e207468657365207061727469657360801b6064820152608490fd5b606460405162461bcd60e51b815260206004820152602060248201527f45787069726174696f6e206d75737420626520696e20746865206675747572656044820152fd5b50426084351161099d565b60405162461bcd60e51b815260206004820152601260248201527114da59db985d1d5c995cc8195e1c1a5c995960721b6044820152606490fd5b3461014b57604036600319011261014b576110dc6110d361158a565b60243590611a5d565b5f908152600460205260408120805490825b82811061122157506110ff836118c3565b9261110d60405194856116d7565b80845261111c601f19916118c3565b015f5b81811061120a5750505f905f5b83811061119a57846040518091602082016020835281518091526040830190602060408260051b8601019301915f905b82821061116b57505050500390f35b9193600191939550602061118a8192603f198a820301865288516114c7565b960192019201859493919261115c565b806111b66111aa6001938561188c565b90549060031b1c611a0f565b6111c1575b0161112c565b6111cb818461188c565b90549060031b1c5f52600360205261120460405f20946111f36111ed826118b5565b966117ab565b6111fd828a6118db565b52876118db565b506111bb565b60209061121561173b565b8282880101520161111f565b61122e6111aa828461188c565b61123b575b6001016110ee565b926112476001916118b5565b939050611233565b3461014b57604036600319011261014b5761126b6110d361158a565b5f52600460205260405f206040519081602082549182815201915f5260205f20905f5b8181106112a5576101318561011d818703826116d7565b825484526020909301926001928301920161128e565b3461014b57602036600319011261014b576112d461173b565b506004355f5260036020526101316112ee60405f206117ab565b6040519182916020835260208301906114c7565b3461014b57602036600319011261014b57600435805f52600360205260405f2061132e815415156116f9565b600581019060ff825460101c1660028110156105a45761140b5760038101546001600160a01b031633149081156113f4575b50156113a1576201000062ff0000198254161790557f0ddaadd38c4a2ecce89f068c4f9c6f5fa427db6ec6b72dd68d98a9be7fde32ea6020604051338152a2005b60405162461bcd60e51b815260206004820152602560248201527f4f6e6c792068756d616e206f72206167656e742077616c6c65742063616e207260448201526465766f6b6560d81b6064820152608490fd5b600101546001600160a01b03163314905083611360565b60405162461bcd60e51b815260206004820152600f60248201526e105b1c9958591e481c995d9bdad959608a1b6044820152606490fd5b3461014b575f36600319011261014b576002545f19810191908211611468576020918152f35b634e487b7160e01b5f52601160045260245ffd5b9060058210156105a45752565b9060038210156105a45752565b9060028210156105a45752565b805180835260209291819084018484015e5f828201840152601f01601f1916010190565b611587918151815260018060a01b0360208301511660208201526040820151604082015260018060a01b0360608301511660608201526080820151608082015261151960a083015160a083019061147c565b61152b60c083015160c0830190611489565b61153d60e083015160e0830190611496565b6101008201516101008201526101208201516101208201526101606115756101408401516101806101408501526101808401906114a3565b920151906101608184039101526114a3565b90565b600435906001600160a01b038216820361014b57565b90602080835192838152019201905f5b8181106115bd5750505090565b82518452602093840193909201916001016115b0565b9181601f8401121561014b5782359167ffffffffffffffff831161014b576020838186019501011161014b57565b90600182811c9216801561162f575b602083101461161b57565b634e487b7160e01b5f52602260045260245ffd5b91607f1691611610565b5f929181549161164883611601565b808352926001811690811561169d575060011461166457505050565b5f9081526020812093945091925b838310611683575060209250010190565b600181602092949394548385870101520191019190611672565b915050602093945060ff929192191683830152151560051b010190565b610180810190811067ffffffffffffffff82111761043757604052565b90601f8019910116810190811067ffffffffffffffff82111761043757604052565b1561170057565b60405162461bcd60e51b8152602060048201526013602482015272131a5b9ac8191bd95cc81b9bdd08195e1a5cdd606a1b6044820152606490fd5b60405190611748826116ba565b6060610160835f81525f60208201525f60408201525f838201525f60808201525f60a08201525f60c08201525f60e08201525f6101008201525f610120820152826101408201520152565b60058210156105a45752565b60038210156105a45752565b906040516117b8816116ba565b8254815260018301546001600160a01b0390811660208301526002840154604083015260038401541660608201526004830154608082015260058301549092839160ff9061180b81831660a08601611793565b61181d828260081c1660c0860161179f565b60101c169160028310156105a4576118886101609260099460e08401526006810154610100840152600781015461012084015260405161186b816118648160088601611639565b03826116d7565b6101408401526118816040518096819301611639565b03846116d7565b0152565b80548210156118a1575f5260205f2001905f90565b634e487b7160e01b5f52603260045260245ffd5b5f1981146114685760010190565b67ffffffffffffffff81116104375760051b60200190565b80518210156118a15760209160051b010190565b9260ff9060c095929897969360e08601997f425117eeada43daa164b20194b22484c2a867eaa7e380b2b9bd7cd235a388e8a875260208701526040860152166060840152608083015260a08201520152565b92919267ffffffffffffffff8211610437576040519161196b601f8201601f1916602001846116d7565b82948184528183011161014b578281602093845f960137010152565b601f821161199457505050565b5f5260205f20906020601f840160051c830193106119cc575b601f0160051c01905b8181106119c1575050565b5f81556001016119b6565b90915081906119ad565b805468010000000000000000811015610437576119f89160018201815561188c565b819291549060031b91821b915f19901b1916179055565b5f52600360205260405f2060ff600582015460101c1660028110156105a457611a5857600701548015159081611a4e575b50611a4a57600190565b5f90565b905042115f611a40565b505f90565b906040519060208201926001600160601b03199060601b168352603482015260348152611a8b6054826116d7565b51902090565b916040519160208301936001600160601b03199060601b16845260348301526001600160601b03199060601b16605482015260488152611a8b6068826116d7565b604290611add611af8565b906040519161190160f01b8352600283015260228201522090565b307f00000000000000000000000000000000000000000000000000000000000000006001600160a01b03161480611be5575b15611b53577f000000000000000000000000000000000000000000000000000000000000000090565b60405160208101907f8b73c3c69bb8fe3d512ecc4cf759cc79239f7b179b0ffacaa9a75d522b39400f82527f000000000000000000000000000000000000000000000000000000000000000060408201527f000000000000000000000000000000000000000000000000000000000000000060608201524660808201523060a082015260a08152611a8b60c0826116d7565b507f00000000000000000000000000000000000000000000000000000000000000004614611b2a565b8151919060418303611c3e57611c379250602082015190606060408401519301515f1a90611d37565b9192909190565b50505f9160029190565b60048110156105a45780611c5a575050565b60018103611c715763f645eedf60e01b5f5260045ffd5b60028103611c8c575063fce698f760e01b5f5260045260245ffd5b600314611c965750565b6335e2f38360e21b5f5260045260245ffd5b60ff8114611cee5760ff811690601f8211611cdf5760405191611ccc6040846116d7565b6020808452838101919036833783525290565b632cd44ac360e21b5f5260045ffd5b5060405161158781611864815f611639565b60ff8114611d245760ff811690601f8211611cdf5760405191611ccc6040846116d7565b5060405161158781611864816001611639565b91907f7fffffffffffffffffffffffffffffff5d576e7357a4501ddfe92f46681b20a08411611db9579160209360809260ff5f9560405194855216868401526040830152606082015282805260015afa15611dae575f516001600160a01b03811615611da457905f905f90565b505f906001905f90565b6040513d5f823e3d90fd5b5050505f916003919056fe7193bdaae412f0095e3700efee49ab8009ff69ea1bfe84acd5d58c9a64c9d533a2646970667358221220d246c8636d5e92f1ea0082c27b5502438e71713af82cb070f7a575cbb468244764736f6c634300081c0033","linkReferences":{}},"methodIdentifiers":{"LINK_TYPEHASH()":"ddbc4a4b","createVerifiedLink(address,uint256,uint256,uint8,uint256,uint256,bytes,bytes)":"6ca0b926","eip712Domain()":"84b0196e","getActiveAgentLinks(address,uint256)":"50ff82a9","getAgentLinks(address,uint256)":"48f02add","getDomainSeparator()":"ed24911d","getHumanLinks(address)":"ffe0649f","getLink(uint256)":"393b6df3","getProfileLinks(uint256)":"879d5bfe","isLinkActive(uint256)":"e0a3e157","links(uint256)":"881d8a40","nonces(address)":"7ecebe00","revokeLink(uint256)":"142ca4c9","totalLinks()":"092b4de1","upgradeLink(uint256,bytes,uint256)":"8ce8d420"},"id":47}