{"abi":[{"type":"constructor","inputs":[],"stateMutability":"nonpayable"},{"type":"function","name":"agentRegistryId","inputs":[],"outputs":[{"name":"","type":"string","internalType":"string"}],"stateMutability":"view"},{"type":"function","name":"agentURI","inputs":[{"name":"agentId","type":"uint256","internalType":"uint256"}],"outputs":[{"name":"","type":"string","internalType":"string"}],"stateMutability":"view"},{"type":"function","name":"approve","inputs":[{"name":"to","type":"address","internalType":"address"},{"name":"tokenId","type":"uint256","internalType":"uint256"}],"outputs":[],"stateMutability":"nonpayable"},{"type":"function","name":"balanceOf","inputs":[{"name":"owner","type":"address","internalType":"address"}],"outputs":[{"name":"","type":"uint256","internalType":"uint256"}],"stateMutability":"view"},{"type":"function","name":"eip712Domain","inputs":[],"outputs":[{"name":"fields","type":"bytes1","internalType":"bytes1"},{"name":"name","type":"string","internalType":"string"},{"name":"version","type":"string","internalType":"string"},{"name":"chainId","type":"uint256","internalType":"uint256"},{"name":"verifyingContract","type":"address","internalType":"address"},{"name":"salt","type":"bytes32","internalType":"bytes32"},{"name":"extensions","type":"uint256[]","internalType":"uint256[]"}],"stateMutability":"view"},{"type":"function","name":"getAgentWallet","inputs":[{"name":"agentId","type":"uint256","internalType":"uint256"}],"outputs":[{"name":"","type":"address","internalType":"address"}],"stateMutability":"view"},{"type":"function","name":"getApproved","inputs":[{"name":"tokenId","type":"uint256","internalType":"uint256"}],"outputs":[{"name":"","type":"address","internalType":"address"}],"stateMutability":"view"},{"type":"function","name":"getDomainSeparator","inputs":[],"outputs":[{"name":"","type":"bytes32","internalType":"bytes32"}],"stateMutability":"view"},{"type":"function","name":"getMetadata","inputs":[{"name":"agentId","type":"uint256","internalType":"uint256"},{"name":"metadataKey","type":"string","internalType":"string"}],"outputs":[{"name":"","type":"bytes","internalType":"bytes"}],"stateMutability":"view"},{"type":"function","name":"isApprovedForAll","inputs":[{"name":"owner","type":"address","internalType":"address"},{"name":"operator","type":"address","internalType":"address"}],"outputs":[{"name":"","type":"bool","internalType":"bool"}],"stateMutability":"view"},{"type":"function","name":"name","inputs":[],"outputs":[{"name":"","type":"string","internalType":"string"}],"stateMutability":"view"},{"type":"function","name":"nextTokenId","inputs":[],"outputs":[{"name":"","type":"uint256","internalType":"uint256"}],"stateMutability":"view"},{"type":"function","name":"ownerOf","inputs":[{"name":"tokenId","type":"uint256","internalType":"uint256"}],"outputs":[{"name":"","type":"address","internalType":"address"}],"stateMutability":"view"},{"type":"function","name":"register","inputs":[],"outputs":[{"name":"agentId","type":"uint256","internalType":"uint256"}],"stateMutability":"nonpayable"},{"type":"function","name":"register","inputs":[{"name":"agentURI","type":"string","internalType":"string"},{"name":"metadata","type":"tuple[]","internalType":"struct LineageAgentRegistry.MetadataEntry[]","components":[{"name":"metadataKey","type":"string","internalType":"string"},{"name":"metadataValue","type":"bytes","internalType":"bytes"}]}],"outputs":[{"name":"agentId","type":"uint256","internalType":"uint256"}],"stateMutability":"nonpayable"},{"type":"function","name":"register","inputs":[{"name":"agentURI","type":"string","internalType":"string"}],"outputs":[{"name":"agentId","type":"uint256","internalType":"uint256"}],"stateMutability":"nonpayable"},{"type":"function","name":"safeTransferFrom","inputs":[{"name":"from","type":"address","internalType":"address"},{"name":"to","type":"address","internalType":"address"},{"name":"tokenId","type":"uint256","internalType":"uint256"}],"outputs":[],"stateMutability":"nonpayable"},{"type":"function","name":"safeTransferFrom","inputs":[{"name":"from","type":"address","internalType":"address"},{"name":"to","type":"address","internalType":"address"},{"name":"tokenId","type":"uint256","internalType":"uint256"},{"name":"data","type":"bytes","internalType":"bytes"}],"outputs":[],"stateMutability":"nonpayable"},{"type":"function","name":"setAgentURI","inputs":[{"name":"agentId","type":"uint256","internalType":"uint256"},{"name":"newURI","type":"string","internalType":"string"}],"outputs":[],"stateMutability":"nonpayable"},{"type":"function","name":"setAgentWallet","inputs":[{"name":"agentId","type":"uint256","internalType":"uint256"},{"name":"newWallet","type":"address","internalType":"address"},{"name":"deadline","type":"uint256","internalType":"uint256"},{"name":"signature","type":"bytes","internalType":"bytes"}],"outputs":[],"stateMutability":"nonpayable"},{"type":"function","name":"setApprovalForAll","inputs":[{"name":"operator","type":"address","internalType":"address"},{"name":"approved","type":"bool","internalType":"bool"}],"outputs":[],"stateMutability":"nonpayable"},{"type":"function","name":"setMetadata","inputs":[{"name":"agentId","type":"uint256","internalType":"uint256"},{"name":"metadataKey","type":"string","internalType":"string"},{"name":"metadataValue","type":"bytes","internalType":"bytes"}],"outputs":[],"stateMutability":"nonpayable"},{"type":"function","name":"supportsInterface","inputs":[{"name":"interfaceId","type":"bytes4","internalType":"bytes4"}],"outputs":[{"name":"","type":"bool","internalType":"bool"}],"stateMutability":"view"},{"type":"function","name":"symbol","inputs":[],"outputs":[{"name":"","type":"string","internalType":"string"}],"stateMutability":"view"},{"type":"function","name":"tokenURI","inputs":[{"name":"tokenId","type":"uint256","internalType":"uint256"}],"outputs":[{"name":"","type":"string","internalType":"string"}],"stateMutability":"view"},{"type":"function","name":"totalSupply","inputs":[],"outputs":[{"name":"","type":"uint256","internalType":"uint256"}],"stateMutability":"view"},{"type":"function","name":"transferFrom","inputs":[{"name":"from","type":"address","internalType":"address"},{"name":"to","type":"address","internalType":"address"},{"name":"tokenId","type":"uint256","internalType":"uint256"}],"outputs":[],"stateMutability":"nonpayable"},{"type":"function","name":"unsetAgentWallet","inputs":[{"name":"agentId","type":"uint256","internalType":"uint256"}],"outputs":[],"stateMutability":"nonpayable"},{"type":"event","name":"Approval","inputs":[{"name":"owner","type":"address","indexed":true,"internalType":"address"},{"name":"approved","type":"address","indexed":true,"internalType":"address"},{"name":"tokenId","type":"uint256","indexed":true,"internalType":"uint256"}],"anonymous":false},{"type":"event","name":"ApprovalForAll","inputs":[{"name":"owner","type":"address","indexed":true,"internalType":"address"},{"name":"operator","type":"address","indexed":true,"internalType":"address"},{"name":"approved","type":"bool","indexed":false,"internalType":"bool"}],"anonymous":false},{"type":"event","name":"BatchMetadataUpdate","inputs":[{"name":"_fromTokenId","type":"uint256","indexed":false,"internalType":"uint256"},{"name":"_toTokenId","type":"uint256","indexed":false,"internalType":"uint256"}],"anonymous":false},{"type":"event","name":"EIP712DomainChanged","inputs":[],"anonymous":false},{"type":"event","name":"MetadataSet","inputs":[{"name":"agentId","type":"uint256","indexed":true,"internalType":"uint256"},{"name":"indexedMetadataKey","type":"string","indexed":true,"internalType":"string"},{"name":"metadataKey","type":"string","indexed":false,"internalType":"string"},{"name":"metadataValue","type":"bytes","indexed":false,"internalType":"bytes"}],"anonymous":false},{"type":"event","name":"MetadataUpdate","inputs":[{"name":"_tokenId","type":"uint256","indexed":false,"internalType":"uint256"}],"anonymous":false},{"type":"event","name":"Registered","inputs":[{"name":"agentId","type":"uint256","indexed":true,"internalType":"uint256"},{"name":"agentURI","type":"string","indexed":false,"internalType":"string"},{"name":"owner","type":"address","indexed":true,"internalType":"address"}],"anonymous":false},{"type":"event","name":"Transfer","inputs":[{"name":"from","type":"address","indexed":true,"internalType":"address"},{"name":"to","type":"address","indexed":true,"internalType":"address"},{"name":"tokenId","type":"uint256","indexed":true,"internalType":"uint256"}],"anonymous":false},{"type":"event","name":"URIUpdated","inputs":[{"name":"agentId","type":"uint256","indexed":true,"internalType":"uint256"},{"name":"newURI","type":"string","indexed":false,"internalType":"string"},{"name":"updatedBy","type":"address","indexed":true,"internalType":"address"}],"anonymous":false},{"type":"error","name":"ECDSAInvalidSignature","inputs":[]},{"type":"error","name":"ECDSAInvalidSignatureLength","inputs":[{"name":"length","type":"uint256","internalType":"uint256"}]},{"type":"error","name":"ECDSAInvalidSignatureS","inputs":[{"name":"s","type":"bytes32","internalType":"bytes32"}]},{"type":"error","name":"ERC721IncorrectOwner","inputs":[{"name":"sender","type":"address","internalType":"address"},{"name":"tokenId","type":"uint256","internalType":"uint256"},{"name":"owner","type":"address","internalType":"address"}]},{"type":"error","name":"ERC721InsufficientApproval","inputs":[{"name":"operator","type":"address","internalType":"address"},{"name":"tokenId","type":"uint256","internalType":"uint256"}]},{"type":"error","name":"ERC721InvalidApprover","inputs":[{"name":"approver","type":"address","internalType":"address"}]},{"type":"error","name":"ERC721InvalidOperator","inputs":[{"name":"operator","type":"address","internalType":"address"}]},{"type":"error","name":"ERC721InvalidOwner","inputs":[{"name":"owner","type":"address","internalType":"address"}]},{"type":"error","name":"ERC721InvalidReceiver","inputs":[{"name":"receiver","type":"address","internalType":"address"}]},{"type":"error","name":"ERC721InvalidSender","inputs":[{"name":"sender","type":"address","internalType":"address"}]},{"type":"error","name":"ERC721NonexistentToken","inputs":[{"name":"tokenId","type":"uint256","internalType":"uint256"}]},{"type":"error","name":"InvalidShortString","inputs":[]},{"type":"error","name":"StringTooLong","inputs":[{"name":"str","type":"string","internalType":"string"}]}],"bytecode":{"object":"0x6101606040523461045357604051610018604082610457565b6014815260208101907f4c696e656167654167656e745265676973747279000000000000000000000000825260405191610053604084610457565b600183526020830191603160f81b8352604051610071604082610457565b601681527f4c696e65616765204167656e74204964656e74697479000000000000000000006020820152604051906100aa604083610457565b60058252641051d1539560da1b60208301528051906001600160401b03821161035a575f5490600182811c92168015610449575b602083101461033c5781601f8493116103dc575b50602090601f8311600114610379575f9261036e575b50508160011b915f199060031b1c1916175f555b8051906001600160401b03821161035a5760015490600182811c92168015610350575b602083101461033c5781601f8493116102ce575b50602090601f8311600114610268575f9261025d575b50508160011b915f199060031b1c1916176001555b6101878161047a565b6101205261019484610601565b61014052519020918260e05251902080610100524660a0526040519060208201927f8b73c3c69bb8fe3d512ecc4cf759cc79239f7b179b0ffacaa9a75d522b39400f8452604083015260608201524660808201523060a082015260a081526101fd60c082610457565b5190206080523060c0526001600955604051612510908161073a82396080518161220c015260a051816122c9015260c051816121d6015260e0518161225b01526101005181612281015261012051816108f0015261014051816109190152f35b015190505f80610169565b60015f9081528281209350601f198516905b8181106102b6575090846001959493921061029e575b505050811b0160015561017e565b01515f1960f88460031b161c191690555f8080610290565b9293602060018192878601518155019501930161027a565b60015f529091507fb10e2d527612073b26eecdfd717e6a320cf44b4afac2b0732d9fcbe2b7fa0cf6601f840160051c81019160208510610332575b90601f859493920160051c01905b8181106103245750610153565b5f8155849350600101610317565b9091508190610309565b634e487b7160e01b5f52602260045260245ffd5b91607f169161013f565b634e487b7160e01b5f52604160045260245ffd5b015190505f80610108565b5f8080528281209350601f198516905b8181106103c457509084600195949392106103ac575b505050811b015f5561011c565b01515f1960f88460031b161c191690555f808061039f565b92936020600181928786015181550195019301610389565b5f80529091507f290decd9548b62a8d60345a988386fc84ba6bc95484008f6362f93160ef3e563601f840160051c8101916020851061043f575b90601f859493920160051c01905b81811061043157506100f2565b5f8155849350600101610424565b9091508190610416565b91607f16916100de565b5f80fd5b601f909101601f19168101906001600160401b0382119082101761035a57604052565b908151602081105f146104f4575090601f8151116104b45760208151910151602082106104a5571790565b5f198260200360031b1b161790565b604460209160405192839163305a27a960e01b83528160048401528051918291826024860152018484015e5f828201840152601f01601f19168101030190fd5b6001600160401b03811161035a57600754600181811c911680156105f7575b602082101461033c57601f81116105c4575b50602092601f821160011461056357928192935f92610558575b50508160011b915f199060031b1c19161760075560ff90565b015190505f8061053f565b601f1982169360075f52805f20915f5b8681106105ac5750836001959610610594575b505050811b0160075560ff90565b01515f1960f88460031b161c191690555f8080610586565b91926020600181928685015181550194019201610573565b60075f52601f60205f20910160051c810190601f830160051c015b8181106105ec5750610525565b5f81556001016105df565b90607f1690610513565b908151602081105f1461062c575090601f8151116104b45760208151910151602082106104a5571790565b6001600160401b03811161035a57600854600181811c9116801561072f575b602082101461033c57601f81116106fc575b50602092601f821160011461069b57928192935f92610690575b50508160011b915f199060031b1c19161760085560ff90565b015190505f80610677565b601f1982169360085f52805f20915f5b8681106106e457508360019596106106cc575b505050811b0160085560ff90565b01515f1960f88460031b161c191690555f80806106be565b919260206001819286850151815501940192016106ab565b60085f52601f60205f20910160051c810190601f830160051c015b818110610724575061065d565b5f8155600101610717565b90607f169061064b56fe60806040526004361015610011575f80fd5b5f3560e01c80623395091461150c57806301ffc9a71461148457806306fdde03146113e2578063081812fc146113a6578063095ea7b3146112bc5780630af28bd31461121c57806318160ddd146111f35780631aa3a0081461111a57806323b872dd146111035780632d1ef5ae14610f075780633fddcf1914610e6657806342842e0e14610e37578063466648da14610c185780636352211e14610be8578063702d6eed14610a3e57806370a08231146109ed57806375794a3c146109d057806378396cb31461034457806384b0196e146108d85780638ea422861461053d57806395d89b4114610473578063a22cb465146103bf578063b88d4fde14610363578063c87b56dd14610344578063cb4799f2146102ee578063e985e9c514610297578063ed24911d146102755763f2c298be1461014c575f80fd5b34610271576020366003190112610271576004356001600160401b0381116102715761024d610181602092369060040161157a565b907fca52e62c367d81bb2e328eb795f7c7ba24afb478408a26c0e201d155c449bc4a6009549384926101b2846117cc565b6009556101bf8433611da2565b84610258575b835f52600b875260405f2060018060a01b0333166001600160601b0360a01b82541617905560405133888201528781526102006040826115e1565b845f5160206124bb5f395f51905f52610236600b6040516a1859d95b9d15d85b1b195d60aa1b81522093604051918291826117da565b0390a36040519182918883523396898401916117ac565b0390a3604051908152f35b61026c61026636878461161d565b85611c82565b6101c5565b5f80fd5b34610271575f36600319011261027157602061028f6121d3565b604051908152f35b34610271576040366003190112610271576102b061154e565b6102b8611564565b9060018060a01b03165f52600560205260405f209060018060a01b03165f52602052602060ff60405f2054166040519015158152f35b34610271576040366003190112610271576024356001600160401b0381116102715761032c610324610340923690600401611653565b600435611b0f565b60405191829160208352602083019061152a565b0390f35b346102715760203660031901126102715761034061032c600435611a4e565b346102715760803660031901126102715761037c61154e565b610384611564565b90604435606435926001600160401b038411610271576103ab6103bd943690600401611653565b926103b783838361180d565b336120af565b005b34610271576040366003190112610271576103d861154e565b60243590811515809203610271573315610460576001600160a01b031690811561044d57335f52600560205260405f20825f5260205260405f2060ff1981541660ff83161790556040519081527f17307eab39ab6107e8899845ad3d59bd9653f200f220920489ca2b5937696c3160203392a3005b50630b61174360e31b5f5260045260245ffd5b63a9fbf51f60e01b5f525f60045260245ffd5b34610271575f366003190112610271576040515f600154610493816116af565b808452906001811690811561051957506001146104bb575b6103408361032c818503826115e1565b60015f9081527fb10e2d527612073b26eecdfd717e6a320cf44b4afac2b0732d9fcbe2b7fa0cf6939250905b8082106104ff5750909150810160200161032c6104ab565b9192600181602092548385880101520191019092916104e7565b60ff191660208086019190915291151560051b8401909101915061032c90506104ab565b34610271576040366003190112610271576004356001600160401b0381116102715761056d90369060040161157a565b602435906001600160401b03821161027157366023830112156102715781600401356001600160401b038111610271576024830192602436918360051b01011161027157600954926105be846117cc565b6009556105cb8433611da2565b826108c5575b835f52600b60205260405f2060018060a01b0333166001600160601b0360a01b8254161790556040513360208201526020815261060f6040826115e1565b845f5160206124bb5f395f51905f52610645600b6040516a1859d95b9d15d85b1b195d60aa1b81522093604051918291826117da565b0390a35f5b82811061069057505050817fca52e62c367d81bb2e328eb795f7c7ba24afb478408a26c0e201d155c449bc4a61024d6020956040519182918883523396898401916117ac565b6106ae6106a76106a18386866119fa565b80611a1c565b369161161d565b602081519101206106bd611982565b6020815191012014610874576106e16106d78285856119fa565b6020810190611a1c565b865f52600a60205260405f2060206106fd6106a18689896119fa565b92836040519485938437820190815203019020916001600160401b038211610860576107338261072d85546116af565b856119ab565b5f90601f83116001146107f85791806107669260019695945f926107ed575b50508160011b915f199060031b1c19161790565b90555b5f5160206124bb5f395f51905f52866107866106a18488886119fa565b92906107e46107996106a1878b8b6119fa565b9190926107aa6106d7898d8d6119fa565b97909181604051928392833781015f8152039020966107d66040519586956040875260408701916117ac565b9184830360208601526117ac565b0390a30161064a565b013590508b80610752565b601f19831691845f5260205f20925f5b81811061084857509160019695949291838895931061082f575b505050811b019055610769565b01355f19600384901b60f8161c191690558a8080610822565b91936020600181928787013581550195019201610808565b634e487b7160e01b5f52604160045260245ffd5b60405162461bcd60e51b815260206004820152602360248201527f43616e6e6f7420736574206167656e7457616c6c657420766961206d6574616460448201526261746160e81b6064820152608490fd5b6108d361026636858861161d565b6105d1565b34610271575f366003190112610271576109746109147f000000000000000000000000000000000000000000000000000000000000000061239d565b61093d7f00000000000000000000000000000000000000000000000000000000000000006123f6565b60206109826040519261095083856115e1565b5f84525f368137604051958695600f60f81b875260e08588015260e087019061152a565b90858203604087015261152a565b4660608501523060808501525f60a085015283810360c08501528180845192838152019301915f5b8281106109b957505050500390f35b8351855286955093810193928101926001016109aa565b34610271575f366003190112610271576020600954604051908152f35b34610271576020366003190112610271576001600160a01b03610a0e61154e565b168015610a2b575f526003602052602060405f2054604051908152f35b6322718ad960e21b5f525f60045260245ffd5b34610271575f36600319011261027157610a5746611fee565b604051610a656060826115e1565b602a815260208101906040368337805115610bd45760308253805160011015610bd45760786021820153604051610a9d6040826115e1565b601081526f181899199a1a9b1b9c1cb0b131b232b360811b60208201525f5b60148110610b1c57610340602061032c600188602789896040519687946632b4b8189a9a9d60c91b828701528051918291018587015e840190601d60f91b84830152518092602883015e01015f838201520301601f1981018352826115e1565b8060130360138111610bc0576001600160fd1b0381168103610bc057309060031b1c9060ff60f81b610b54600f8460041c1685611fdd565b5116918160011b9282840460021483151715610bc057836002019081600211610bc057610b84905f1a9187611fdd565b536001600160f81b031990610b9c90600f1685611fdd565b51169160030180600311610bc057610bb96001935f1a9186611fdd565b5301610abc565b634e487b7160e01b5f52601160045260245ffd5b634e487b7160e01b5f52603260045260245ffd5b34610271576020366003190112610271576020610c06600435611bc3565b6040516001600160a01b039091168152f35b34610271576060366003190112610271576004356024356001600160401b03811161027157610c4b903690600401611653565b906044356001600160401b03811161027157610c6b903690600401611653565b91815f526002602052610c94610c8f8360018060a01b0360405f2054163390611bf7565b611768565b805160208201908120610ca5611982565b6020815191012014610dfb57825f52600a60205260405f206020604051809285518086845e82019081520301902084516001600160401b03811161086057610cf781610cf184546116af565b846119ab565b6020601f8211600114610d8457925f5160206124bb5f395f51905f529492610d3b83610d7494610d66975f91610d79575b508160011b915f199060031b1c19161790565b90555b604051809184518091835e81015f81520390209560405193849360408552604085019061152a565b90838203602085015261152a565b0390a3005b90508a01518b610d28565b601f19821690835f52805f20915f5b818110610de3575083610d6696935f5160206124bb5f395f51905f52989693610d749660019410610dcb575b5050811b019055610d3e565b8b01515f1960f88460031b161c191690558a80610dbf565b9192602060018192868d015181550194019201610d93565b60405162461bcd60e51b8152602060048201526014602482015273557365207365744167656e7457616c6c6574282960601b6044820152606490fd5b34610271576103bd610e48366115a7565b9060405192610e586020856115e1565b5f84526103b783838361180d565b3461027157602036600319011261027157600435805f526002602052610e9d610c8f8260018060a01b0360405f2054163390611bf7565b805f52600b60205260405f206001600160601b0360a01b8154169055604051905f602083015260208252610ed26040836115e1565b5f5160206124bb5f395f51905f52610d74600b6040516a1859d95b9d15d85b1b195d60aa1b81522093604051918291826117da565b3461027157608036600319011261027157600435610f23611564565b906044356064356001600160401b03811161027157610f4690369060040161157a565b919093835f526002602052610f6c610c8f8560018060a01b0360405f2054163390611bf7565b8142116110ca576001600160a01b031693841561109457849261100861100e9260426110179560405160208101917f5a2b87f3673ca6856d85d54cb1a9eb690f53c4d6b0954db34c84fe6c19c80d9483528a6040830152896060830152608082015260808152610fdd60a0826115e1565b519020610fe86121d3565b906040519161190160f01b8352600283015260228201522092369161161d565b906122ef565b90929192612329565b6001600160a01b03160361105b57805f52600b60205260405f20826001600160601b0360a01b82541617905560405191602083015260208252610ed26040836115e1565b60405162461bcd60e51b8152602060048201526011602482015270496e76616c6964207369676e617475726560781b6044820152606490fd5b60405162461bcd60e51b815260206004820152600e60248201526d125b9d985b1a59081dd85b1b195d60921b6044820152606490fd5b60405162461bcd60e51b815260206004820152601160248201527014da59db985d1d5c9948195e1c1a5c9959607a1b6044820152606490fd5b34610271576103bd611114366115a7565b9161180d565b34610271575f366003190112610271576020600954611138816117cc565b6009556111458133611da2565b805f52600b825260405f2060018060a01b0333166001600160601b0360a01b82541617905560405133838201528281526111806040826115e1565b815f5160206124bb5f395f51905f526111b6600b6040516a1859d95b9d15d85b1b195d60aa1b81522093604051918291826117da565b0390a36040518281525f83820152817fca52e62c367d81bb2e328eb795f7c7ba24afb478408a26c0e201d155c449bc4a60403393a3604051908152f35b34610271575f366003190112610271576009545f198101908111610bc057602090604051908152f35b34610271576040366003190112610271576024356004356001600160401b038211610271577f3a2c7fffc2cba7582c690e3b82c453ea02a308326a98a3ad7576c606336409fb611273610d7493369060040161157a565b9390835f526002602052611298610c8f8560018060a01b0360405f2054163390611bf7565b6112a661026636878461161d565b60405191829160208352339660208401916117ac565b34610271576040366003190112610271576112d561154e565b6024356112e181611bc3565b33151580611393575b80611366575b6113535781906001600160a01b0384811691167f8c5be1e5ebec7d5bd14f71427d1e84f3dd0314c0f7b2291e5b200ac8c7c3b9255f80a45f90815260046020526040902080546001600160a01b0319166001600160a01b03909216919091179055005b63a9fbf51f60e01b5f523360045260245ffd5b506001600160a01b0381165f90815260056020908152604080832033845290915290205460ff16156112f0565b506001600160a01b0381163314156112ea565b34610271576020366003190112610271576004356113c381611bc3565b505f526004602052602060018060a01b0360405f205416604051908152f35b34610271575f366003190112610271576040515f5f54611401816116af565b80845290600181169081156105195750600114611428576103408361032c818503826115e1565b5f8080527f290decd9548b62a8d60345a988386fc84ba6bc95484008f6362f93160ef3e563939250905b80821061146a5750909150810160200161032c6104ab565b919260018160209254838588010152019101909291611452565b346102715760203660031901126102715760043563ffffffff60e01b811680910361027157602090632483248360e11b81149081156114c9575b506040519015158152f35b6380ac58cd60e01b8114915081156114fb575b81156114ea575b50826114be565b6301ffc9a760e01b149050826114e3565b635b5e139f60e01b811491506114dc565b34610271576020366003190112610271576020610c06600435611671565b805180835260209291819084018484015e5f828201840152601f01601f1916010190565b600435906001600160a01b038216820361027157565b602435906001600160a01b038216820361027157565b9181601f84011215610271578235916001600160401b038311610271576020838186019501011161027157565b6060906003190112610271576004356001600160a01b038116810361027157906024356001600160a01b0381168103610271579060443590565b90601f801991011681019081106001600160401b0382111761086057604052565b6001600160401b03811161086057601f01601f191660200190565b92919261162982611602565b9161163760405193846115e1565b829481845281830111610271578281602093845f960137010152565b9080601f830112156102715781602061166e9335910161161d565b90565b5f818152600b60205260409020546001600160a01b0316908115611693575090565b5f908152600260205260409020546001600160a01b0316919050565b90600182811c921680156116dd575b60208310146116c957565b634e487b7160e01b5f52602260045260245ffd5b91607f16916116be565b5f92918154916116f6836116af565b808352926001811690811561174b575060011461171257505050565b5f9081526020812093945091925b838310611731575060209250010190565b600181602092949394548385870101520191019190611720565b915050602093945060ff929192191683830152151560051b010190565b1561176f57565b60405162461bcd60e51b8152602060048201526015602482015274139bdd081bdddb995c881bdc88185c1c1c9bdd9959605a1b6044820152606490fd5b908060209392818452848401375f828201840152601f01601f1916010190565b5f198114610bc05760010190565b90608061166e9260408152600b60408201526a1859d95b9d15d85b1b195d60aa1b6060820152816020820152019061152a565b6001600160a01b039091169190821561196f575f828152600260205260409020546001600160a01b03169233611932575b8284151591826118ff575b805f52600360205260405f2060018154019055815f52600260205260405f20816001600160601b0360a01b825416179055857fddf252ad1be2c89b69c2b068fc378daa952ba7f163c4a11628f55a4df523b3ef5f80a4806118f7575b6118d7575b6001600160a01b03168083036118bf57505050565b6364283d7b60e01b5f5260045260245260445260645ffd5b5f828152600b6020526040902080546001600160a01b03191690556118aa565b5060016118a5565b5f82815260046020526040902080546001600160a01b0319169055855f52600360205260405f205f198154019055611849565b61193d833386611bf7565b61183e57828461195957637e27328960e01b5f5260045260245ffd5b63177e802f60e01b5f523360045260245260445ffd5b633250574960e11b5f525f60045260245ffd5b604051906119916040836115e1565b600b82526a1859d95b9d15d85b1b195d60aa1b6020830152565b601f82116119b857505050565b5f5260205f20906020601f840160051c830193106119f0575b601f0160051c01905b8181106119e5575050565b5f81556001016119da565b90915081906119d1565b9190811015610bd45760051b81013590603e1981360301821215610271570190565b903590601e198136030182121561027157018035906001600160401b0382116102715760200191813603831361027157565b611a5781611bc3565b50602090604051611a6883826115e1565b5f8152815f5260068352611a88611a8f60405f20604051928380926116e7565b03826115e1565b815115611b085780849151611acd57505050611aaa90611bc3565b505f604051611ab983826115e1565b52611ac760405191826115e1565b5f815290565b61166e935081906040519584879551918291018487015e8401908282015f8152815193849201905e01015f815203601f1981018352826115e1565b9250505090565b9080519060208101918220611b22611982565b6020815191012014611b635790602061166e92611a88945f52600a825260405f20604051938492518091845e820190815203019020604051928380926116e7565b50505f818152600b60205260409020546001600160a01b0316908115611ba5575b506040519060018060a01b031660208201526020815261166e6040826115e1565b5f908152600260205260408120546001600160a01b03169150611b84565b5f818152600260205260409020546001600160a01b0316908115611be5575090565b637e27328960e01b5f5260045260245ffd5b6001600160a01b03909116801515929183611c13575b50505090565b6001600160a01b031680821493509091908315611c5f575b508215611c3d575b50505f8080611c0d565b5f908152600460205260408120546001600160a01b0316909114915080611c33565b9092505f52600560205260405f20815f5260205260ff60405f205416915f611c2b565b919091805f52600660205260405f2083516001600160401b03811161086057611caf81610cf184546116af565b6020601f8211600114611d1a57816020949392611d03927ff8e1a15aba9398e019f0b49df1a4fde98ee17ae345cb5f6b5e2c27f5033e8ce797985f92611d0f5750508160011b915f199060031b1c19161790565b90555b604051908152a1565b015190505f80610752565b601f19821695835f52815f20965f5b818110611d8a575096600192849260209796957ff8e1a15aba9398e019f0b49df1a4fde98ee17ae345cb5f6b5e2c27f5033e8ce7999a10611d72575b505050811b019055611d06565b01515f1960f88460031b161c191690555f8080611d65565b83830151895560019098019760209384019301611d29565b9060209060405190611db483836115e1565b5f82526001600160a01b03841693841561196f575f8281526002855260409020546001600160a01b03168015159081611fac575b865f526003865260405f2060018154019055835f526002865260405f20876001600160601b0360a01b8254161790558387827fddf252ad1be2c89b69c2b068fc378daa952ba7f163c4a11628f55a4df523b3ef5f80a48180611fa4575b611f85575b50611f72573b611e5b575b50505050565b91611e9891819495936040519384928392630a85bd0160e11b84523360048501525f6024850152604484015260806064840152608483019061152a565b03815f885af15f9181611f32575b50611efb5750503d15611ef3573d90611ebe82611602565b91611ecc60405193846115e1565b82523d5f8284013e5b81519182611ef05783633250574960e11b5f5260045260245ffd5b01fd5b606090611ed5565b909291506001600160e01b03191663757a42ff60e11b01611f2057505f808080611e55565b633250574960e11b5f5260045260245ffd5b9091508381813d8311611f6b575b611f4a81836115e1565b8101031261027157516001600160e01b03198116810361027157905f611ea6565b503d611f40565b6339e3563760e11b5f525f60045260245ffd5b5f848152600b87526040902080546001600160a01b0319169055611e4a565b506001611e45565b5f8481526004602052604080822080546001600160a01b031916905582825260038852902080545f19019055611de8565b908151811015610bd4570160200190565b801561208f5780815f925b612079575061200782611602565b9161201560405193846115e1565b80835281601f1961202583611602565b013660208601375b61203657505090565b5f198101908111610bc0578091600a81066030019182603011610bc057600a9260f81b6001600160f81b0319165f1a906120709086611fdd565b5304908161202d565b9091612086600a916117cc565b92910480611ff9565b5060405161209e6040826115e1565b60018152600360fc1b602082015290565b823b6120bd575b5050505050565b604051630a85bd0160e11b81526001600160a01b03918216600482015291811660248301526044820193909352608060648201529116916020908290819061210990608483019061152a565b03815f865af15f918161218e575b5061216c57503d15612165573d61212d81611602565b9061213b60405192836115e1565b81523d5f602083013e5b805190816121605782633250574960e11b5f5260045260245ffd5b602001fd5b6060612145565b6001600160e01b03191663757a42ff60e11b01611f2057505f808080806120b6565b9091506020813d6020116121cb575b816121aa602093836115e1565b8101031261027157516001600160e01b03198116810361027157905f612117565b3d915061219d565b307f00000000000000000000000000000000000000000000000000000000000000006001600160a01b031614806122c6575b1561222e577f000000000000000000000000000000000000000000000000000000000000000090565b60405160208101907f8b73c3c69bb8fe3d512ecc4cf759cc79239f7b179b0ffacaa9a75d522b39400f82527f000000000000000000000000000000000000000000000000000000000000000060408201527f000000000000000000000000000000000000000000000000000000000000000060608201524660808201523060a082015260a081526122c060c0826115e1565b51902090565b507f00000000000000000000000000000000000000000000000000000000000000004614612205565b815191906041830361231f576123189250602082015190606060408401519301515f1a9061242d565b9192909190565b50505f9160029190565b6004811015612389578061233b575050565b600181036123525763f645eedf60e01b5f5260045ffd5b6002810361236d575063fce698f760e01b5f5260045260245ffd5b6003146123775750565b6335e2f38360e21b5f5260045260245ffd5b634e487b7160e01b5f52602160045260245ffd5b60ff81146123e35760ff811690601f82116123d457604051916123c16040846115e1565b6020808452838101919036833783525290565b632cd44ac360e21b5f5260045ffd5b5060405161166e81611a888160076116e7565b60ff811461241a5760ff811690601f82116123d457604051916123c16040846115e1565b5060405161166e81611a888160086116e7565b91907f7fffffffffffffffffffffffffffffff5d576e7357a4501ddfe92f46681b20a084116124af579160209360809260ff5f9560405194855216868401526040830152606082015282805260015afa156124a4575f516001600160a01b0381161561249a57905f905f90565b505f906001905f90565b6040513d5f823e3d90fd5b5050505f916003919056fe2c149ed548c6d2993cd73efe187df6eccabe4538091b33adbd25fafdb8a1468ba2646970667358221220318464bed20baa77d9c4f4a55d169c712437425cbba68f5195dec0f9def3490164736f6c634300081c0033","linkReferences":{}},"methodIdentifiers":{"agentRegistryId()":"702d6eed","agentURI(uint256)":"78396cb3","approve(address,uint256)":"095ea7b3","balanceOf(address)":"70a08231","eip712Domain()":"84b0196e","getAgentWallet(uint256)":"00339509","getApproved(uint256)":"081812fc","getDomainSeparator()":"ed24911d","getMetadata(uint256,string)":"cb4799f2","isApprovedForAll(address,address)":"e985e9c5","name()":"06fdde03","nextTokenId()":"75794a3c","ownerOf(uint256)":"6352211e","register()":"1aa3a008","register(string)":"f2c298be","register(string,(string,bytes)[])":"8ea42286","safeTransferFrom(address,address,uint256)":"42842e0e","safeTransferFrom(address,address,uint256,bytes)":"b88d4fde","setAgentURI(uint256,string)":"0af28bd3","setAgentWallet(uint256,address,uint256,bytes)":"2d1ef5ae","setApprovalForAll(address,bool)":"a22cb465","setMetadata(uint256,string,bytes)":"466648da","supportsInterface(bytes4)":"01ffc9a7","symbol()":"95d89b41","tokenURI(uint256)":"c87b56dd","totalSupply()":"18160ddd","transferFrom(address,address,uint256)":"23b872dd","unsetAgentWallet(uint256)":"3fddcf19"},"id":48}