{"abi":[{"type":"function","name":"getAverageScore","inputs":[{"name":"agentTokenId","type":"uint256","internalType":"uint256"}],"outputs":[{"name":"avg","type":"uint256","internalType":"uint256"},{"name":"count","type":"uint256","internalType":"uint256"}],"stateMutability":"view"},{"type":"function","name":"getFeedback","inputs":[{"name":"agentTokenId","type":"uint256","internalType":"uint256"},{"name":"offset","type":"uint256","internalType":"uint256"},{"name":"limit","type":"uint256","internalType":"uint256"}],"outputs":[{"name":"results","type":"tuple[]","internalType":"struct LineageReputationRegistry.Feedback[]","components":[{"name":"reviewer","type":"address","internalType":"address"},{"name":"agentTokenId","type":"uint256","internalType":"uint256"},{"name":"score","type":"uint8","internalType":"uint8"},{"name":"comment","type":"string","internalType":"string"},{"name":"timestamp","type":"uint256","internalType":"uint256"},{"name":"exists","type":"bool","internalType":"bool"}]}],"stateMutability":"view"},{"type":"function","name":"getFeedbackAt","inputs":[{"name":"agentTokenId","type":"uint256","internalType":"uint256"},{"name":"index","type":"uint256","internalType":"uint256"}],"outputs":[{"name":"","type":"tuple","internalType":"struct LineageReputationRegistry.Feedback","components":[{"name":"reviewer","type":"address","internalType":"address"},{"name":"agentTokenId","type":"uint256","internalType":"uint256"},{"name":"score","type":"uint8","internalType":"uint8"},{"name":"comment","type":"string","internalType":"string"},{"name":"timestamp","type":"uint256","internalType":"uint256"},{"name":"exists","type":"bool","internalType":"bool"}]}],"stateMutability":"view"},{"type":"function","name":"getReviewByReviewer","inputs":[{"name":"agentTokenId","type":"uint256","internalType":"uint256"},{"name":"reviewer","type":"address","internalType":"address"}],"outputs":[{"name":"","type":"tuple","internalType":"struct LineageReputationRegistry.Feedback","components":[{"name":"reviewer","type":"address","internalType":"address"},{"name":"agentTokenId","type":"uint256","internalType":"uint256"},{"name":"score","type":"uint8","internalType":"uint8"},{"name":"comment","type":"string","internalType":"string"},{"name":"timestamp","type":"uint256","internalType":"uint256"},{"name":"exists","type":"bool","internalType":"bool"}]}],"stateMutability":"view"},{"type":"function","name":"getReviewCount","inputs":[{"name":"agentTokenId","type":"uint256","internalType":"uint256"}],"outputs":[{"name":"","type":"uint256","internalType":"uint256"}],"stateMutability":"view"},{"type":"function","name":"hasReviewed","inputs":[{"name":"agentTokenId","type":"uint256","internalType":"uint256"},{"name":"reviewer","type":"address","internalType":"address"}],"outputs":[{"name":"","type":"bool","internalType":"bool"}],"stateMutability":"view"},{"type":"function","name":"submitFeedback","inputs":[{"name":"agentTokenId","type":"uint256","internalType":"uint256"},{"name":"score","type":"uint8","internalType":"uint8"},{"name":"comment","type":"string","internalType":"string"}],"outputs":[],"stateMutability":"nonpayable"},{"type":"event","name":"FeedbackSubmitted","inputs":[{"name":"agentTokenId","type":"uint256","indexed":true,"internalType":"uint256"},{"name":"reviewer","type":"address","indexed":true,"internalType":"address"},{"name":"score","type":"uint8","indexed":false,"internalType":"uint8"},{"name":"comment","type":"string","indexed":false,"internalType":"string"}],"anonymous":false},{"type":"event","name":"FeedbackUpdated","inputs":[{"name":"agentTokenId","type":"uint256","indexed":true,"internalType":"uint256"},{"name":"reviewer","type":"address","indexed":true,"internalType":"address"},{"name":"oldScore","type":"uint8","indexed":false,"internalType":"uint8"},{"name":"newScore","type":"uint8","indexed":false,"internalType":"uint8"},{"name":"comment","type":"string","indexed":false,"internalType":"string"}],"anonymous":false}],"bytecode":{"object":"0x60808060405234601557610cd3908161001a8239f35b5f80fdfe60806040526004361015610011575f80fd5b5f3560e01c8063280f3015146107a55780632a7a8eed1461071e578063351301b8146106585780635d75135a1461062e5780637c7198cc146105f5578063de3a2b59146105cb5763e7fe547014610066575f80fd5b346105c75760603660031901126105c75760043560243560ff81168091036105c7576044359167ffffffffffffffff83116105c757366023840112156105c75782600401359167ffffffffffffffff8311806105c7576024850136602486880101116105c7576001831015806105bc575b15610583578315610545575f84815260016020908152604080832033845290915290205480156102ce57845f525f60205260405f20905f1981019081116102ba576101219161095d565b50600281019260ff84541693865f52600260205261014c866101478760405f2054610950565b610943565b875f52600260205260405f20558560ff1982541617905560038201906102a6576101808761017a835461099e565b83610c2e565b5f601f881160011461021357906101d788806102009695947f324c3625395d4fcd350e35b08b8c04bdce25ab0411408be4b01b07c901a4476c9a9b9c5f92610205575b50508160011b915f199060031b1c19161790565b90555b600442910155604051938493845260208401526060604084015233966060840191610c7d565b0390a3005b602492500101355f806101c3565b601f19881690825f5260205f20915f5b81811061028b57509961020095949392918a7f324c3625395d4fcd350e35b08b8c04bdce25ab0411408be4b01b07c901a4476c9a9b9c1061026f575b505050600189811b0190556101da565b01602401355f1960038c901b60f8161c191690555f808061025f565b919260206001819260248f8801013581550194019201610223565b634e487b7160e01b5f52604160045260245ffd5b634e487b7160e01b5f52601160045260245ffd5b50919293945050825f525f60205260405f206040516102ec816108bd565b33815260208101908582526040810190858252604051906103176020601f19601f8c011601836108d9565b888252888660208401375f60208a8401015260608101918252608081019242845260a0820195600187528054680100000000000000008110156102a6576103639160018201815561095d565b95909561053257915185546001600160a01b0319166001600160a01b0391909116178555905160018501555160028401805460ff191660ff92909216919091179055518051600384019167ffffffffffffffff82116102a6576103d0826103ca855461099e565b85610c2e565b602090601f83116001146104ca579180610404926005979695945f926104bf5750508160011b915f199060031b1c19161790565b90555b516004820155019051151560ff80198354169116179055825f525f60205260405f2054835f52600160205260405f2060018060a01b0333165f5260205260405f2055825f52600260205260405f20610460838254610943565b9055825f52600360205260405f20918254925f1984146102ba5760017f6e8197b4ab8fa5842ad94cc7768338588ab457376667593c18795d0f0192e4c19401905561020060405192839283526040602084015233966040840191610c7d565b015190505f806101c3565b90601f19831691845f52815f20925f5b81811061051a57509160019391856005999897969410610502575b505050811b019055610407565b01515f1960f88460031b161c191690555f80806104f5565b929360206001819287860151815501950193016104da565b634e487b7160e01b5f525f60045260245ffd5b60405162461bcd60e51b8152602060048201526016602482015275125b9d985b1a59081859d95b9d081d1bdad95b88125160521b6044820152606490fd5b60405162461bcd60e51b815260206004820152601160248201527053636f7265206d75737420626520312d3560781b6044820152606490fd5b5060058311156100d7565b5f80fd5b346105c75760203660031901126105c75760406105e9600435610bd3565b82519182526020820152f35b346105c75761060336610897565b905f52600160205260405f209060018060a01b03165f52602052602060405f20541515604051908152f35b346105c75760203660031901126105c7576004355f526003602052602060405f2054604051908152f35b346105c75761066636610897565b61066e610913565b50815f52600160205260405f209060018060a01b03165f5260205260405f20549081156106d9575f525f60205260405f20905f1981019081116102ba576106bb6106c1916106d59361095d565b506109d6565b60405191829160208352602083019061082d565b0390f35b60405162461bcd60e51b815260206004820152601c60248201527f4e6f207265766965772066726f6d2074686973207265766965776572000000006044820152606490fd5b346105c75760403660031901126105c75760043560243561073d610913565b50815f525f60205260405f205481101561076b576106bb6106c1916106d5935f525f60205260405f2061095d565b60405162461bcd60e51b8152602060048201526012602482015271496e646578206f7574206f662072616e676560701b6044820152606490fd5b346105c75760603660031901126105c7576107c7604435602435600435610ac5565b6040518091602082016020835281518091526040830190602060408260051b8601019301915f905b8282106107fe57505050500390f35b9193600191939550602061081d8192603f198a8203018652885161082d565b96019201920185949391926107ef565b90602060a060e093600180831b038151168452828101518385015260ff6040820151166040850152606081015160c0606086015280519384918260c0880152018686015e5f848401860152608081810151908501520151151560a0830152601f01601f1916010190565b60409060031901126105c757600435906024356001600160a01b03811681036105c75790565b60c0810190811067ffffffffffffffff8211176102a657604052565b90601f8019910116810190811067ffffffffffffffff8211176102a657604052565b67ffffffffffffffff81116102a65760051b60200190565b60405190610920826108bd565b5f60a0838281528260208201528260408201526060808201528260808201520152565b919082018092116102ba57565b919082039182116102ba57565b8054821015610976575f52600660205f20910201905f90565b634e487b7160e01b5f52603260045260245ffd5b80518210156109765760209160051b010190565b90600182811c921680156109cc575b60208310146109b857565b634e487b7160e01b5f52602260045260245ffd5b91607f16916109ad565b906040516109e3816108bd565b809260018060a01b0381541682526001810154602083015260ff600282015416604083015260038101604051905f90805490610a1e8261099e565b8085529160018116908115610aa05750600114610a65575b505060a09282610a4c60ff9460059403826108d9565b6060860152600481015460808601520154161515910152565b5f908152602081209092505b818310610a8657505081016020018282610a36565b600181602092949394548385880101520191019190610a71565b60ff191660208087019190915292151560051b85019092019250849150839050610a36565b929190925f525f60205260405f209081549081851015610b9657610afd91610aee869283610943565b90808211610b8e575b50610950565b90610b07826108fb565b90610b1560405192836108d9565b828252601f19610b24846108fb565b015f5b818110610b7757505081945f5b848110610b42575050505050565b80610b5b6106bb610b5560019486610943565b8661095d565b610b65828761098a565b52610b70818661098a565b5001610b34565b602090610b82610913565b82828701015201610b27565b90505f610af7565b509192505050604051610baa6020826108d9565b5f81525f805b818110610bbc57505090565b602090610bc7610913565b82828601015201610bb0565b805f52600360205260405f2054908115610c26575f52600260205260405f20546064810290808204606414901517156102ba578115610c125781900491565b634e487b7160e01b5f52601260045260245ffd5b50505f905f90565b601f8211610c3b57505050565b5f5260205f20906020601f840160051c83019310610c73575b601f0160051c01905b818110610c68575050565b5f8155600101610c5d565b9091508190610c54565b908060209392818452848401375f828201840152601f01601f191601019056fea2646970667358221220db9671ece3e0acf2ba946b0d6360256044c481f34b25dbf0d0620fe21d107c7a64736f6c634300081c0033","linkReferences":{}},"methodIdentifiers":{"getAverageScore(uint256)":"de3a2b59","getFeedback(uint256,uint256,uint256)":"280f3015","getFeedbackAt(uint256,uint256)":"2a7a8eed","getReviewByReviewer(uint256,address)":"351301b8","getReviewCount(uint256)":"5d75135a","hasReviewed(uint256,address)":"7c7198cc","submitFeedback(uint256,uint8,string)":"e7fe5470"},"id":49}